{
  "contractName": "unCentralize",
  "abi": [
    {
      "inputs": [
        {
          "internalType": "address payable",
          "name": "devAddress",
          "type": "address"
        }
      ],
      "stateMutability": "nonpayable",
      "type": "constructor"
    },
    {
      "inputs": [],
      "name": "devWallet",
      "outputs": [
        {
          "internalType": "address payable",
          "name": "",
          "type": "address"
        }
      ],
      "stateMutability": "view",
      "type": "function"
    },
    {
      "inputs": [],
      "name": "five",
      "outputs": [
        {
          "internalType": "uint256",
          "name": "",
          "type": "uint256"
        }
      ],
      "stateMutability": "view",
      "type": "function"
    },
    {
      "inputs": [
        {
          "internalType": "address",
          "name": "",
          "type": "address"
        }
      ],
      "name": "indVoteCount",
      "outputs": [
        {
          "internalType": "uint256",
          "name": "",
          "type": "uint256"
        }
      ],
      "stateMutability": "view",
      "type": "function"
    },
    {
      "inputs": [
        {
          "internalType": "address",
          "name": "",
          "type": "address"
        }
      ],
      "name": "insurers",
      "outputs": [
        {
          "internalType": "uint256",
          "name": "refRewards",
          "type": "uint256"
        },
        {
          "internalType": "uint256",
          "name": "tier",
          "type": "uint256"
        },
        {
          "internalType": "uint40",
          "name": "startTime",
          "type": "uint40"
        },
        {
          "internalType": "uint256",
          "name": "withdrawable",
          "type": "uint256"
        },
        {
          "internalType": "bool",
          "name": "isCurrent",
          "type": "bool"
        },
        {
          "internalType": "uint256",
          "name": "count1",
          "type": "uint256"
        },
        {
          "internalType": "uint256",
          "name": "count2",
          "type": "uint256"
        },
        {
          "internalType": "uint256",
          "name": "userPool",
          "type": "uint256"
        }
      ],
      "stateMutability": "view",
      "type": "function"
    },
    {
      "inputs": [],
      "name": "percentDivider",
      "outputs": [
        {
          "internalType": "uint256",
          "name": "",
          "type": "uint256"
        }
      ],
      "stateMutability": "view",
      "type": "function"
    },
    {
      "inputs": [],
      "name": "ten",
      "outputs": [
        {
          "internalType": "uint256",
          "name": "",
          "type": "uint256"
        }
      ],
      "stateMutability": "view",
      "type": "function"
    },
    {
      "inputs": [],
      "name": "threeDivider",
      "outputs": [
        {
          "internalType": "uint256",
          "name": "",
          "type": "uint256"
        }
      ],
      "stateMutability": "view",
      "type": "function"
    },
    {
      "inputs": [],
      "name": "tierOne",
      "outputs": [
        {
          "internalType": "uint256",
          "name": "",
          "type": "uint256"
        }
      ],
      "stateMutability": "view",
      "type": "function"
    },
    {
      "inputs": [],
      "name": "tierThree",
      "outputs": [
        {
          "internalType": "uint256",
          "name": "",
          "type": "uint256"
        }
      ],
      "stateMutability": "view",
      "type": "function"
    },
    {
      "inputs": [],
      "name": "tierTwo",
      "outputs": [
        {
          "internalType": "uint256",
          "name": "",
          "type": "uint256"
        }
      ],
      "stateMutability": "view",
      "type": "function"
    },
    {
      "inputs": [],
      "name": "twenty",
      "outputs": [
        {
          "internalType": "uint256",
          "name": "",
          "type": "uint256"
        }
      ],
      "stateMutability": "view",
      "type": "function"
    },
    {
      "inputs": [],
      "name": "twoDivider",
      "outputs": [
        {
          "internalType": "uint256",
          "name": "",
          "type": "uint256"
        }
      ],
      "stateMutability": "view",
      "type": "function"
    },
    {
      "inputs": [
        {
          "internalType": "address",
          "name": "referral",
          "type": "address"
        },
        {
          "internalType": "uint256",
          "name": "pymt",
          "type": "uint256"
        },
        {
          "internalType": "uint256",
          "name": "tierChosen",
          "type": "uint256"
        }
      ],
      "name": "signUp",
      "outputs": [],
      "stateMutability": "nonpayable",
      "type": "function"
    },
    {
      "inputs": [],
      "name": "makePayment",
      "outputs": [],
      "stateMutability": "nonpayable",
      "type": "function"
    },
    {
      "inputs": [],
      "name": "claimPayout",
      "outputs": [],
      "stateMutability": "nonpayable",
      "type": "function"
    },
    {
      "inputs": [
        {
          "internalType": "address",
          "name": "contAddy",
          "type": "address"
        },
        {
          "internalType": "uint256",
          "name": "invAmt",
          "type": "uint256"
        }
      ],
      "name": "addNewContract",
      "outputs": [],
      "stateMutability": "nonpayable",
      "type": "function"
    },
    {
      "inputs": [
        {
          "internalType": "address",
          "name": "theStar",
          "type": "address"
        },
        {
          "internalType": "uint40",
          "name": "creation",
          "type": "uint40"
        }
      ],
      "name": "makeClaim",
      "outputs": [],
      "stateMutability": "nonpayable",
      "type": "function"
    },
    {
      "inputs": [
        {
          "internalType": "uint8",
          "name": "voterChoice",
          "type": "uint8"
        }
      ],
      "name": "vote",
      "outputs": [],
      "stateMutability": "nonpayable",
      "type": "function"
    }
  ],
  "bytecode": "0x60806040523480156200001157600080fd5b5060405162002738380380620027388339818101604052810190620000379190620000e9565b80600760006101000a81548173ffffffffffffffffffffffffffffffffffffffff021916908373ffffffffffffffffffffffffffffffffffffffff160217905550506200011b565b600080fd5b600073ffffffffffffffffffffffffffffffffffffffff82169050919050565b6000620000b18262000084565b9050919050565b620000c381620000a4565b8114620000cf57600080fd5b50565b600081519050620000e381620000b8565b92915050565b6000602082840312156200010257620001016200007f565b5b60006200011284828501620000d2565b91505092915050565b61260d806200012b6000396000f3fe608060405234801561001057600080fd5b50600436106101165760003560e01c8063b2047eeb116100a2578063de45aeef11610071578063de45aeef14610299578063e6559c07146102d0578063e88499a9146102ec578063f8af9dd2146102f6578063fe6f1b051461031457610116565b8063b2047eeb14610237578063b3f98adc14610255578063d8d7970014610271578063dc9930191461027b57610116565b80634a6cb313116100e95780634a6cb313146101a3578063643ceff9146101bf57806378183af0146101dd5780638ea5220f146101fb578063af11c34c1461021957610116565b80632fdc6c751461011b57806335390e61146101395780634703e5561461016957806347d410f314610185575b600080fd5b610123610332565b6040516101309190611da0565b60405180910390f35b610153600480360381019061014e9190611e1e565b610338565b6040516101609190611da0565b60405180910390f35b610183600480360381019061017e9190611e77565b610350565b005b61018d6106f7565b60405161019a9190611da0565b60405180910390f35b6101bd60048036038101906101b89190611ef4565b6106fc565b005b6101c761070a565b6040516101d49190611da0565b60405180910390f35b6101e561070f565b6040516101f29190611da0565b60405180910390f35b610203610714565b6040516102109190611f55565b60405180910390f35b61022161073a565b60405161022e9190611da0565b60405180910390f35b61023f61073f565b60405161024c9190611da0565b60405180910390f35b61026f600480360381019061026a9190611fa9565b610744565b005b6102796110f1565b005b61028361123c565b6040516102909190611da0565b60405180910390f35b6102b360048036038101906102ae9190611e1e565b611241565b6040516102c7989796959493929190612000565b60405180910390f35b6102ea60048036038101906102e5919061207e565b6112a7565b005b6102f4611465565b005b6102fe6114ed565b60405161030b9190611da0565b60405180910390f35b61031c6114f2565b6040516103299190611da0565b60405180910390f35b61012c81565b60066020528060005260406000206000915090505481565b6000600560003373ffffffffffffffffffffffffffffffffffffffff1673ffffffffffffffffffffffffffffffffffffffff168152602001908152602001600020905061039c336114f8565b60005b6003805490508110156106f1578373ffffffffffffffffffffffffffffffffffffffff16600382815481106103d7576103d66120d1565b5b906000526020600020906002020160000160009054906101000a900473ffffffffffffffffffffffffffffffffffffffff1673ffffffffffffffffffffffffffffffffffffffff16036106de5760005b6003828154811061043b5761043a6120d1565b5b906000526020600020906002020160010180549050811015610585573373ffffffffffffffffffffffffffffffffffffffff1660038381548110610482576104816120d1565b5b906000526020600020906002020160010182815481106104a5576104a46120d1565b5b9060005260206000200160009054906101000a900473ffffffffffffffffffffffffffffffffffffffff1673ffffffffffffffffffffffffffffffffffffffff161461057257600382815481106104ff576104fe6120d1565b5b9060005260206000209060020201600101339080600181540180825580915050600190039060005260206000200160009091909190916101000a81548173ffffffffffffffffffffffffffffffffffffffff021916908373ffffffffffffffffffffffffffffffffffffffff1602179055505b808061057d9061212f565b915050610427565b5060005b82600a01805490508110156106dc57600083600a0182815481106105b0576105af6120d1565b5b906000526020600020906002020160000160009054906101000a900473ffffffffffffffffffffffffffffffffffffffff1690508573ffffffffffffffffffffffffffffffffffffffff168173ffffffffffffffffffffffffffffffffffffffff160361061d57506106dc565b83600a0160405180604001604052808873ffffffffffffffffffffffffffffffffffffffff16815260200187815250908060018154018082558091505060019003906000526020600020906002020160009091909190915060008201518160000160006101000a81548173ffffffffffffffffffffffffffffffffffffffff021916908373ffffffffffffffffffffffffffffffffffffffff1602179055506020820151816001015550505080806106d49061212f565b915050610589565b505b80806106e99061212f565b91505061039f565b50505050565b600381565b6107068282611667565b5050565b600a81565b609681565b600760009054906101000a900473ffffffffffffffffffffffffffffffffffffffff1681565b600581565b600281565b60005b600480549050811015610e725760006004828154811061076a576107696120d1565b5b906000526020600020906004020160000160199054906101000a900460ff1660ff16036109ad573373ffffffffffffffffffffffffffffffffffffffff16600482815481106107bc576107bb6120d1565b5b906000526020600020906004020160010160009054906101000a900473ffffffffffffffffffffffffffffffffffffffff1673ffffffffffffffffffffffffffffffffffffffff161415801561088357503373ffffffffffffffffffffffffffffffffffffffff1660048281548110610838576108376120d1565b5b906000526020600020906004020160020160009054906101000a900473ffffffffffffffffffffffffffffffffffffffff1673ffffffffffffffffffffffffffffffffffffffff1614155b801561090057503373ffffffffffffffffffffffffffffffffffffffff16600482815481106108b5576108b46120d1565b5b906000526020600020906004020160030160009054906101000a900473ffffffffffffffffffffffffffffffffffffffff1673ffffffffffffffffffffffffffffffffffffffff1614155b156109ac57816004828154811061091a576109196120d1565b5b906000526020600020906004020160000160196101000a81548160ff021916908360ff1602179055503360048281548110610958576109576120d1565b5b906000526020600020906004020160010160006101000a81548173ffffffffffffffffffffffffffffffffffffffff021916908373ffffffffffffffffffffffffffffffffffffffff160217905550610e72565b5b6000600482815481106109c3576109c26120d1565b5b9060005260206000209060040201600001601a9054906101000a900460ff1660ff1603610c06573373ffffffffffffffffffffffffffffffffffffffff1660048281548110610a1557610a146120d1565b5b906000526020600020906004020160010160009054906101000a900473ffffffffffffffffffffffffffffffffffffffff1673ffffffffffffffffffffffffffffffffffffffff1614158015610adc57503373ffffffffffffffffffffffffffffffffffffffff1660048281548110610a9157610a906120d1565b5b906000526020600020906004020160020160009054906101000a900473ffffffffffffffffffffffffffffffffffffffff1673ffffffffffffffffffffffffffffffffffffffff1614155b8015610b5957503373ffffffffffffffffffffffffffffffffffffffff1660048281548110610b0e57610b0d6120d1565b5b906000526020600020906004020160030160009054906101000a900473ffffffffffffffffffffffffffffffffffffffff1673ffffffffffffffffffffffffffffffffffffffff1614155b15610c05578160048281548110610b7357610b726120d1565b5b9060005260206000209060040201600001601a6101000a81548160ff021916908360ff1602179055503360048281548110610bb157610bb06120d1565b5b906000526020600020906004020160020160006101000a81548173ffffffffffffffffffffffffffffffffffffffff021916908373ffffffffffffffffffffffffffffffffffffffff160217905550610e72565b5b600060048281548110610c1c57610c1b6120d1565b5b9060005260206000209060040201600001601b9054906101000a900460ff1660ff1603610e5f573373ffffffffffffffffffffffffffffffffffffffff1660048281548110610c6e57610c6d6120d1565b5b906000526020600020906004020160010160009054906101000a900473ffffffffffffffffffffffffffffffffffffffff1673ffffffffffffffffffffffffffffffffffffffff1614158015610d3557503373ffffffffffffffffffffffffffffffffffffffff1660048281548110610cea57610ce96120d1565b5b906000526020600020906004020160020160009054906101000a900473ffffffffffffffffffffffffffffffffffffffff1673ffffffffffffffffffffffffffffffffffffffff1614155b8015610db257503373ffffffffffffffffffffffffffffffffffffffff1660048281548110610d6757610d666120d1565b5b906000526020600020906004020160030160009054906101000a900473ffffffffffffffffffffffffffffffffffffffff1673ffffffffffffffffffffffffffffffffffffffff1614155b15610e5e578160048281548110610dcc57610dcb6120d1565b5b9060005260206000209060040201600001601b6101000a81548160ff021916908360ff1602179055503360048281548110610e0a57610e096120d1565b5b906000526020600020906004020160030160006101000a81548173ffffffffffffffffffffffffffffffffffffffff021916908373ffffffffffffffffffffffffffffffffffffffff160217905550610e72565b5b8080610e6a9061212f565b915050610747565b5060005b6004805490508110156110ed57600060048281548110610e9957610e986120d1565b5b906000526020600020906004020160000160199054906101000a900460ff1660ff16118015610efd5750600060048281548110610ed957610ed86120d1565b5b9060005260206000209060040201600001601a9054906101000a900460ff1660ff16115b8015610f3e5750600060048281548110610f1a57610f196120d1565b5b9060005260206000209060040201600001601b9054906101000a900460ff1660ff16115b156110da57600060048281548110610f5957610f586120d1565b5b906000526020600020906004020160000160199054906101000a900460ff1660048381548110610f8c57610f8b6120d1565b5b9060005260206000209060040201600001601a9054906101000a900460ff1660048481548110610fbf57610fbe6120d1565b5b906000526020600020906004020160000160199054906101000a900460ff16610fe89190612177565b610ff29190612177565b60ff16905060048111156110d857600160038381548110611016576110156120d1565b5b906000526020600020906002020160000160196101000a81548160ff021916908315150217905550600060038381548110611054576110536120d1565b5b9060005260206000209060020201600101905060005b81805490508110156110d557600082828154811061108b5761108a6120d1565b5b9060005260206000200160009054906101000a900473ffffffffffffffffffffffffffffffffffffffff1690506110c181611985565b5080806110cd9061212f565b91505061106a565b50505b505b80806110e59061212f565b915050610e76565b5050565b6000600560003373ffffffffffffffffffffffffffffffffffffffff1673ffffffffffffffffffffffffffffffffffffffff1681526020019081526020016000209050600081600901805490501161117e576040517f08c379a00000000000000000000000000000000000000000000000000000000081526004016111759061220b565b60405180910390fd5b6000816002015490508160090160405180604001604052808381526020014264ffffffffff1681525090806001815401808255809150506001900390600052602060002090600202016000909190919091506000820151816000015560208201518160010160006101000a81548164ffffffffff021916908364ffffffffff160217905550505080600080828254611216919061222b565b9250508190555080826008016000828254611231919061222b565b925050819055505050565b603281565b60056020528060005260406000206000915090508060010154908060020154908060030160009054906101000a900464ffffffffff16908060040154908060050160009054906101000a900460ff16908060060154908060070154908060080154905088565b6000600560003373ffffffffffffffffffffffffffffffffffffffff1673ffffffffffffffffffffffffffffffffffffffff16815260200190815260200160002090506001816009018054905010611334576040517f08c379a000000000000000000000000000000000000000000000000000000000815260040161132b906122cd565b60405180910390fd5b818314611376576040517f08c379a000000000000000000000000000000000000000000000000000000000815260040161136d9061235f565b60405180910390fd5b8060090160405180604001604052808581526020014264ffffffffff1681525090806001815401808255809150506001900390600052602060002090600202016000909190919091506000820151816000015560208201518160010160006101000a81548164ffffffffff021916908364ffffffffff16021790555050506113fe8484611bf7565b818160020181905550428160030160006101000a81548164ffffffffff021916908364ffffffffff1602179055508260008082825461143d919061222b565b9250508190555082816008016000828254611458919061222b565b9250508190555050505050565b6000600560003373ffffffffffffffffffffffffffffffffffffffff1673ffffffffffffffffffffffffffffffffffffffff16815260200190815260200160002090506114b1336114f8565b6000816004015411806114c8575060008160010154115b156114ea5760018160040160008282546114e2919061222b565b925050819055505b50565b601481565b6103e881565b6000600560008373ffffffffffffffffffffffffffffffffffffffff1673ffffffffffffffffffffffffffffffffffffffff168152602001908152602001600020905060005b8160090180549050811015611662576000600190505b826009018054905081101561164e57600083600901838154811061157b5761157a6120d1565b5b906000526020600020906002020160010160009054906101000a900464ffffffffff16905060008460090183815481106115b8576115b76120d1565b5b906000526020600020906002020160010160009054906101000a900464ffffffffff16905060028164ffffffffff166115f1919061237f565b8264ffffffffff1610611639576040517f08c379a0000000000000000000000000000000000000000000000000000000008152600401611630906123ff565b60405180910390fd5b505081806116469061212f565b925050611554565b50808061165a9061212f565b91505061153e565b505050565b60005b600480549050811015611703578273ffffffffffffffffffffffffffffffffffffffff16600482815481106116a2576116a16120d1565b5b906000526020600020906004020160000160009054906101000a900473ffffffffffffffffffffffffffffffffffffffff1673ffffffffffffffffffffffffffffffffffffffff1603156117035780806116fb9061212f565b91505061166a565b5060046040518061010001604052808473ffffffffffffffffffffffffffffffffffffffff1681526020018364ffffffffff168152602001600060ff168152602001600060ff168152602001600060ff168152602001600073ffffffffffffffffffffffffffffffffffffffff168152602001600073ffffffffffffffffffffffffffffffffffffffff168152602001600073ffffffffffffffffffffffffffffffffffffffff16815250908060018154018082558091505060019003906000526020600020906004020160009091909190915060008201518160000160006101000a81548173ffffffffffffffffffffffffffffffffffffffff021916908373ffffffffffffffffffffffffffffffffffffffff16021790555060208201518160000160146101000a81548164ffffffffff021916908364ffffffffff16021790555060408201518160000160196101000a81548160ff021916908360ff160217905550606082015181600001601a6101000a81548160ff021916908360ff160217905550608082015181600001601b6101000a81548160ff021916908360ff16021790555060a08201518160010160006101000a81548173ffffffffffffffffffffffffffffffffffffffff021916908373ffffffffffffffffffffffffffffffffffffffff16021790555060c08201518160020160006101000a81548173ffffffffffffffffffffffffffffffffffffffff021916908373ffffffffffffffffffffffffffffffffffffffff16021790555060e08201518160030160006101000a81548173ffffffffffffffffffffffffffffffffffffffff021916908373ffffffffffffffffffffffffffffffffffffffff16021790555050505050565b6000600560008373ffffffffffffffffffffffffffffffffffffffff1673ffffffffffffffffffffffffffffffffffffffff168152602001908152602001600020905060005b81600a0180549050811015611bf257600082600a0182815481106119f2576119f16120d1565b5b906000526020600020906002020160000160009054906101000a900473ffffffffffffffffffffffffffffffffffffffff1690508373ffffffffffffffffffffffffffffffffffffffff168173ffffffffffffffffffffffffffffffffffffffff1603611bde5760005b83600a0180549050811015611bdc576000611a956103e8611a87600547611caf90919063ffffffff16565b611d2990919063ffffffff16565b90506000611ac16103e8611ab3600a47611caf90919063ffffffff16565b611d2990919063ffffffff16565b90506000611aed6103e8611adf601447611caf90919063ffffffff16565b611d2990919063ffffffff16565b9050600087600a018781548110611b0757611b066120d1565b5b906000526020600020906002020160010154905083811015611b475780886004016000828254611b37919061222b565b9250508190555050505050611bdc565b82811015611b8657611b63600282611d2990919063ffffffff16565b886004016000828254611b76919061222b565b9250508190555050505050611bdc565b81811015611bc557611ba2600382611d2990919063ffffffff16565b886004016000828254611bb5919061222b565b9250508190555050505050611bdc565b505050508080611bd49061212f565b915050611a5c565b505b508080611bea9061212f565b9150506119cb565b505050565b6000600560008473ffffffffffffffffffffffffffffffffffffffff1673ffffffffffffffffffffffffffffffffffffffff168152602001908152602001600020905060328203611c5f576005816001016000828254611c57919061222b565b925050819055505b60968203611c8457600a816001016000828254611c7c919061222b565b925050819055505b61012c8203611caa576014816001016000828254611ca2919061222b565b925050819055505b505050565b6000808303611cc15760009050611d23565b60008284611ccf919061241f565b9050828482611cde91906124a8565b14611d1e576040517f08c379a0000000000000000000000000000000000000000000000000000000008152600401611d159061254b565b60405180910390fd5b809150505b92915050565b6000808211611d6d576040517f08c379a0000000000000000000000000000000000000000000000000000000008152600401611d64906125b7565b60405180910390fd5b60008284611d7b91906124a8565b90508091505092915050565b6000819050919050565b611d9a81611d87565b82525050565b6000602082019050611db56000830184611d91565b92915050565b600080fd5b600073ffffffffffffffffffffffffffffffffffffffff82169050919050565b6000611deb82611dc0565b9050919050565b611dfb81611de0565b8114611e0657600080fd5b50565b600081359050611e1881611df2565b92915050565b600060208284031215611e3457611e33611dbb565b5b6000611e4284828501611e09565b91505092915050565b611e5481611d87565b8114611e5f57600080fd5b50565b600081359050611e7181611e4b565b92915050565b60008060408385031215611e8e57611e8d611dbb565b5b6000611e9c85828601611e09565b9250506020611ead85828601611e62565b9150509250929050565b600064ffffffffff82169050919050565b611ed181611eb7565b8114611edc57600080fd5b50565b600081359050611eee81611ec8565b92915050565b60008060408385031215611f0b57611f0a611dbb565b5b6000611f1985828601611e09565b9250506020611f2a85828601611edf565b9150509250929050565b6000611f3f82611dc0565b9050919050565b611f4f81611f34565b82525050565b6000602082019050611f6a6000830184611f46565b92915050565b600060ff82169050919050565b611f8681611f70565b8114611f9157600080fd5b50565b600081359050611fa381611f7d565b92915050565b600060208284031215611fbf57611fbe611dbb565b5b6000611fcd84828501611f94565b91505092915050565b611fdf81611eb7565b82525050565b60008115159050919050565b611ffa81611fe5565b82525050565b600061010082019050612016600083018b611d91565b612023602083018a611d91565b6120306040830189611fd6565b61203d6060830188611d91565b61204a6080830187611ff1565b61205760a0830186611d91565b61206460c0830185611d91565b61207160e0830184611d91565b9998505050505050505050565b60008060006060848603121561209757612096611dbb565b5b60006120a586828701611e09565b93505060206120b686828701611e62565b92505060406120c786828701611e62565b9150509250925092565b7f4e487b7100000000000000000000000000000000000000000000000000000000600052603260045260246000fd5b7f4e487b7100000000000000000000000000000000000000000000000000000000600052601160045260246000fd5b600061213a82611d87565b91507fffffffffffffffffffffffffffffffffffffffffffffffffffffffffffffffff820361216c5761216b612100565b5b600182019050919050565b600061218282611f70565b915061218d83611f70565b92508260ff038211156121a3576121a2612100565b5b828201905092915050565b600082825260208201905092915050565b7f596f752068617665206e6f74207369676e656420757021000000000000000000600082015250565b60006121f56017836121ae565b9150612200826121bf565b602082019050919050565b60006020820190508181036000830152612224816121e8565b9050919050565b600061223682611d87565b915061224183611d87565b9250827fffffffffffffffffffffffffffffffffffffffffffffffffffffffffffffffff0382111561227657612275612100565b5b828201905092915050565b7f596f7527766520616c7265616479207369676e65642075702100000000000000600082015250565b60006122b76019836121ae565b91506122c282612281565b602082019050919050565b600060208201905081810360008301526122e6816122aa565b9050919050565b7f5061796d656e7420616d6f756e7420616e64207469657220646f6573206e6f7460008201527f206d617463680000000000000000000000000000000000000000000000000000602082015250565b60006123496026836121ae565b9150612354826122ed565b604082019050919050565b600060208201905081810360008301526123788161233c565b9050919050565b600061238a82611d87565b915061239583611d87565b9250828210156123a8576123a7612100565b5b828203905092915050565b7f596f7520617265206e6f742063757272656e7421000000000000000000000000600082015250565b60006123e96014836121ae565b91506123f4826123b3565b602082019050919050565b60006020820190508181036000830152612418816123dc565b9050919050565b600061242a82611d87565b915061243583611d87565b9250817fffffffffffffffffffffffffffffffffffffffffffffffffffffffffffffffff048311821515161561246e5761246d612100565b5b828202905092915050565b7f4e487b7100000000000000000000000000000000000000000000000000000000600052601260045260246000fd5b60006124b382611d87565b91506124be83611d87565b9250826124ce576124cd612479565b5b828204905092915050565b7f536166654d6174683a206d756c7469706c69636174696f6e206f766572666c6f60008201527f7700000000000000000000000000000000000000000000000000000000000000602082015250565b60006125356021836121ae565b9150612540826124d9565b604082019050919050565b6000602082019050818103600083015261256481612528565b9050919050565b7f536166654d6174683a206469766973696f6e206279207a65726f000000000000600082015250565b60006125a1601a836121ae565b91506125ac8261256b565b602082019050919050565b600060208201905081810360008301526125d081612594565b905091905056fea2646970667358221220815ca4b24e44dfb80ed927909d46c801c148ce47e1aa8c5c66facda24cb15b6c64736f6c634300080d0033",
  "immutableReferences": {},
  "source": "pragma solidity ^0.8.13;\n\n//ierc20\nlibrary SafeMath {\n\n    function add(uint256 a, uint256 b) internal pure returns (uint256) {\n        uint256 c = a + b;\n        require(c >= a, \"SafeMath: addition overflow\");\n        return c;\n    }\n\n    function sub(uint256 a, uint256 b) internal pure returns (uint256) {\n        require(b <= a, \"SafeMath: subtraction overflow\");\n        uint256 c = a - b;\n        return c;\n    }\n\n    function mul(uint256 a, uint256 b) internal pure returns (uint256) {\n        if (a == 0) {\n            return 0;\n        }\n        uint256 c = a * b;\n        require(c / a == b, \"SafeMath: multiplication overflow\");\n        return c;\n    }\n\n    function div(uint256 a, uint256 b) internal pure returns (uint256) {\n        require(b > 0, \"SafeMath: division by zero\");\n        uint256 c = a / b;\n        return c;\n    }\n}\n//safemath\n\nstruct paymentHistory{\n    uint256 pymtamt;\n    uint40 time;\n    }\n\nstruct invHist{\n    address contyaddy;\n    uint256 amtInv;\n}\n\nstruct Insurer{\n    address [] referrals;\n    uint256 refRewards;\n    uint256 tier;\n    uint40 startTime;\n    //uint256 monthsAlive;\n    uint256 withdrawable;\n    bool isCurrent;\n    uint256 count1;\n    uint256 count2;\n    //uint256 testWallet;\n    uint256 userPool;\n    paymentHistory [] payments;\n    invHist [] invCons;\n}\n\nstruct contractInfo{\n    address contractAddress;\n    uint40 contCreation;\n    bool covered;\n    address [] recipients;\n}\n\nstruct voterInfo{\n    address contAddress;\n    uint40 dateOfCreation;\n    uint8 vote1;\n    uint8 vote2;\n    uint8 vote3;\n    address voter1;\n    address voter2;\n    address voter3;\n    //uint256 testvalue;\n}\n\ncontract unCentralize{\n    using SafeMath for uint256;\n    using SafeMath for uint40;\n\n    uint256 centralPool;\n    uint256 payoutTiers;\n    uint256 constant public tierOne = 50;\n    uint256 constant public tierTwo = 150;\n    uint256 constant public tierThree = 300;\n    uint256 constant public percentDivider = 1000;\n    uint256 constant public twoDivider = 2;\n    uint256 constant public threeDivider = 3;\n    uint256 constant public five = 5;\n    uint256 constant public ten = 10;\n    uint256 constant public twenty = 20;\n    address [] ruggedList;\n    contractInfo [] coveredContracts;\n    voterInfo [] voterList;\n\n    mapping(address => Insurer) public insurers; // look at this variable after\n    mapping(address => uint256) public indVoteCount;\n\n    address payable public devWallet;\n\n    constructor(address payable devAddress){    \n        devWallet = devAddress;\n    }\n\n    function refPayout(address refAddy, uint256 refPymt) private {\n        Insurer storage insurer = insurers[refAddy];\n        if (refPymt == tierOne){\n            insurer.refRewards += five;\n        }\n        if (refPymt == tierTwo){\n            insurer.refRewards += ten;\n        }\n        if (refPymt == tierThree){\n            insurer.refRewards += twenty;\n        }\n}\n\n    function signUp (address referral, uint256 pymt, uint256 tierChosen) public {\n        Insurer storage insurer = insurers[msg.sender];\n        //take payment\n        require(insurer.payments.length < 1, \"You've already signed up!\");\n        require(pymt == tierChosen, \"Payment amount and tier does not match\");\n        insurer.payments.push(paymentHistory({\n            pymtamt: pymt,\n            time: uint40(block.timestamp)\n        }));\n        refPayout(referral,pymt);\n        insurer.tier = tierChosen;\n        insurer.startTime = uint40(block.timestamp);\n        centralPool += pymt;\n        insurer.userPool += pymt;\n        \n    }\n\n    function checkIfCurrent (address addry) internal view {\n        Insurer storage insurer = insurers[addry];\n        // require(insurer.payments.length > 1); //how many months can they start withdrawing at\n\n        for (uint256 i = 0; i < insurer.payments.length; i++ ){\n            for (uint256 y = 1; y < insurer.payments.length; i++){\n            uint40 iterPayments = insurer.payments[i].time; //might have to become state/storage variable?\n            uint40 iterPayments2 = insurer.payments[y].time; // \"\" \"\"\n            require (iterPayments < (iterPayments2 - twoDivider), \"You are not current!\"); //fix 40 day variable later\n            }\n        }\n\n    }\n\n    function makePayment() public{\n        Insurer storage insurer = insurers[msg.sender];\n        require (insurer.payments.length > 0, \"You have not signed up!\");\n        //busd.transfer\n        uint256 theTier = insurer.tier;\n        \n        insurer.payments.push(paymentHistory({\n            pymtamt: theTier,\n            time: uint40(block.timestamp)\n        }));\n    \n        centralPool += theTier;\n        insurer.userPool += theTier;\n\n    }\n\n    // function fetchAddyinfo(address adddy) public returns(uint40 cc, bool cvered, uint256 lngth )  {\n    //     for (uint i = 0; i < coveredContracts.length; i++)\n    //         if (coveredContracts[i].contractAddress = adddy){\n    //             return coveredContracts[i].contCreation;\n    //             return coveredContracts[i].covered;\n    //             return coveredContracts.recipients.length;\n    //         }\n    // }           \n\n    function claimPayout() public {\n        Insurer storage insurer = insurers[msg.sender];\n        checkIfCurrent(msg.sender);\n        if (insurer.withdrawable > 0 || insurer.refRewards > 0){\n            insurer.withdrawable +=1;\n            //uint256 theAmt = withdrawable + refRewards\n            //BUSD.transfer(msg.sender, theAmt)\n        }\n    }\n\n    function addNewContract(address contAddy, uint256 invAmt) public {\n        Insurer storage insurer = insurers[msg.sender];\n        checkIfCurrent(msg.sender);\n        for (uint i = 0; i < coveredContracts.length; i++){\n            if (coveredContracts[i].contractAddress == contAddy){\n                for (uint256 z = 0; z < coveredContracts[i].recipients.length; z++){\n                    if (coveredContracts[i].recipients[z] != msg.sender){\n                        coveredContracts[i].recipients.push(msg.sender);}}\n                for (uint256 y = 0; y < insurer.invCons.length; y++){\n                        address t = insurer.invCons[y].contyaddy;\n                            if (t == contAddy){\n                                break;\n                            }\n                            else {\n                                insurer.invCons.push(invHist({\n                                    contyaddy: contAddy,\n                                    amtInv: invAmt\n                                }));\n\n                            }\n                }\n            }       \n        }\n    } \n\n    function makeClaim(address theStar, uint40 creation) external{\n        nominate(theStar, creation);\n    }\n\n\n    function nominate(address star, uint40 creatDat) internal {\n        for (uint i = 0; i < voterList.length; i++){\n            if (voterList[i].contAddress == star)\n                break;\n        }\n        \n    voterList.push(voterInfo({\n        contAddress: star,\n        dateOfCreation: creatDat,\n        vote1: 0,\n        vote2: 0,\n        vote3: 0,\n        voter1: 0x0000000000000000000000000000000000000000,\n        voter2: 0x0000000000000000000000000000000000000000,\n        voter3: 0x0000000000000000000000000000000000000000\n    }));\n    }\n\n\n    function vote(uint8 voterChoice) public {\n        for (uint i = 0; i < voterList.length; i++){\n            if (voterList[i].vote1 == 0){\n                if (voterList[i].voter1 != msg.sender && voterList[i].voter2 != msg.sender && voterList[i].voter3 != msg.sender){\n                    voterList[i].vote1 = voterChoice;\n                    voterList[i].voter1 = msg.sender;\n                    break;\n                    }\n                }\n                if (voterList[i].vote2 == 0){\n                    if (voterList[i].voter1 != msg.sender && voterList[i].voter2 != msg.sender && voterList[i].voter3 != msg.sender){\n                        voterList[i].vote2 = voterChoice;\n                        voterList[i].voter2 = msg.sender;\n                        break;\n                    }\n                }\n                if (voterList[i].vote3 == 0){\n                    if (voterList[i].voter1 != msg.sender && voterList[i].voter2 != msg.sender && voterList[i].voter3 != msg.sender){\n                        voterList[i].vote3 = voterChoice;\n                        voterList[i].voter3 = msg.sender;\n                        break;\n                    }\n                }\n        }    \n\n        for (uint y = 0; y < voterList.length; y++){\n            if (voterList[y].vote1 > 0 && voterList[y].vote2 > 0 && voterList[y].vote3 > 0){\n                uint256 randVar = voterList[y].vote1 + voterList[y].vote2 + voterList[y].vote1;\n                //check if you can add three\n                if (randVar > 4) {\n                    coveredContracts[y].covered = true;\n                    address[] storage transitionVar = coveredContracts[y].recipients;\n                    for (uint256 z = 0; z < transitionVar.length; z++){\n                        address plHolder = transitionVar[z];\n                        calc(plHolder);   \n                        }\n                    }\n                }\n            }\n        }\n\n    // function voteToAdd(){\n\n    // }\n\n\n    function calc(address thatAddress) internal {\n        Insurer storage insurer = insurers[thatAddress];\n        for (uint256 d = 0; d < insurer.invCons.length; d++){\n            address randomAddry = insurer.invCons[d].contyaddy;\n            if (randomAddry == thatAddress){\n                for (uint256 x = 0; x < insurer.invCons.length; x++){\n                    uint256 threshhold1 = address(this).balance.mul(five).div(percentDivider);\n                    uint256 threshhold2 = address(this).balance.mul(ten).div(percentDivider);\n                    uint256 threshhold3 = address(this).balance.mul(twenty).div(percentDivider);\n                    uint256 payoutAmt = insurer.invCons[d].amtInv;\n                        if (payoutAmt < threshhold1){\n                        insurer.withdrawable += payoutAmt;\n                        break;\n                        }\n                        if (payoutAmt < threshhold2){\n                        insurer.withdrawable += payoutAmt.div(twoDivider);\n                        break;\n                        } \n                        if (payoutAmt < threshhold3){\n                        insurer.withdrawable += payoutAmt.div(threeDivider);\n                        break;\n                        }\n                }\n            }\n        }\n    }\n}\n",
  "sourcePath": "/Users/epx/Desktop/TempFolder/contracts/unCentralize.sol",
  "compiler": {
    "name": "solc",
    "version": "0.8.13+commit.abaa5c0e.Emscripten.clang"
  },
  "schemaVersion": "3.4.7",
  "updatedAt": "2022-05-18T20:52:04.832Z",
  "devdoc": {
    "kind": "dev",
    "methods": {},
    "version": 1
  },
  "userdoc": {
    "kind": "user",
    "methods": {},
    "version": 1
  }
}